{"abi":[{"type":"constructor","inputs":[{"name":"initialOwner","type":"address","internalType":"address"}],"stateMutability":"nonpayable"},{"type":"function","name":"approve","inputs":[{"name":"to","type":"address","internalType":"address"},{"name":"tokenId","type":"uint256","internalType":"uint256"}],"outputs":[],"stateMutability":"nonpayable"},{"type":"function","name":"balanceOf","inputs":[{"name":"owner","type":"address","internalType":"address"}],"outputs":[{"name":"","type":"uint256","internalType":"uint256"}],"stateMutability":"view"},{"type":"function","name":"findNft","inputs":[{"name":"recipient","type":"address","internalType":"address"}],"outputs":[{"name":"uri","type":"string","internalType":"string"}],"stateMutability":"view"},{"type":"function","name":"getApproved","inputs":[{"name":"tokenId","type":"uint256","internalType":"uint256"}],"outputs":[{"name":"","type":"address","internalType":"address"}],"stateMutability":"view"},{"type":"function","name":"isApprovedForAll","inputs":[{"name":"owner","type":"address","internalType":"address"},{"name":"operator","type":"address","internalType":"address"}],"outputs":[{"name":"","type":"bool","internalType":"bool"}],"stateMutability":"view"},{"type":"function","name":"mintNFT","inputs":[{"name":"recipient","type":"address","internalType":"address"},{"name":"tokenURI","type":"string","internalType":"string"}],"outputs":[{"name":"","type":"uint256","internalType":"uint256"}],"stateMutability":"nonpayable"},{"type":"function","name":"name","inputs":[],"outputs":[{"name":"","type":"string","internalType":"string"}],"stateMutability":"view"},{"type":"function","name":"ownerOf","inputs":[{"name":"tokenId","type":"uint256","internalType":"uint256"}],"outputs":[{"name":"","type":"address","internalType":"address"}],"stateMutability":"view"},{"type":"function","name":"safeTransferFrom","inputs":[{"name":"from","type":"address","internalType":"address"},{"name":"to","type":"address","internalType":"address"},{"name":"tokenId","type":"uint256","internalType":"uint256"}],"outputs":[],"stateMutability":"nonpayable"},{"type":"function","name":"safeTransferFrom","inputs":[{"name":"from","type":"address","internalType":"address"},{"name":"to","type":"address","internalType":"address"},{"name":"tokenId","type":"uint256","internalType":"uint256"},{"name":"data","type":"bytes","internalType":"bytes"}],"outputs":[],"stateMutability":"nonpayable"},{"type":"function","name":"setApprovalForAll","inputs":[{"name":"operator","type":"address","internalType":"address"},{"name":"approved","type":"bool","internalType":"bool"}],"outputs":[],"stateMutability":"nonpayable"},{"type":"function","name":"supportsInterface","inputs":[{"name":"interfaceId","type":"bytes4","internalType":"bytes4"}],"outputs":[{"name":"","type":"bool","internalType":"bool"}],"stateMutability":"view"},{"type":"function","name":"symbol","inputs":[],"outputs":[{"name":"","type":"string","internalType":"string"}],"stateMutability":"view"},{"type":"function","name":"tokenURI","inputs":[{"name":"tokenId","type":"uint256","internalType":"uint256"}],"outputs":[{"name":"","type":"string","internalType":"string"}],"stateMutability":"view"},{"type":"function","name":"transferFrom","inputs":[{"name":"from","type":"address","internalType":"address"},{"name":"to","type":"address","internalType":"address"},{"name":"tokenId","type":"uint256","internalType":"uint256"}],"outputs":[],"stateMutability":"nonpayable"},{"type":"event","name":"Approval","inputs":[{"name":"owner","type":"address","indexed":true,"internalType":"address"},{"name":"approved","type":"address","indexed":true,"internalType":"address"},{"name":"tokenId","type":"uint256","indexed":true,"internalType":"uint256"}],"anonymous":false},{"type":"event","name":"ApprovalForAll","inputs":[{"name":"owner","type":"address","indexed":true,"internalType":"address"},{"name":"operator","type":"address","indexed":true,"internalType":"address"},{"name":"approved","type":"bool","indexed":false,"internalType":"bool"}],"anonymous":false},{"type":"event","name":"BatchMetadataUpdate","inputs":[{"name":"_fromTokenId","type":"uint256","indexed":false,"internalType":"uint256"},{"name":"_toTokenId","type":"uint256","indexed":false,"internalType":"uint256"}],"anonymous":false},{"type":"event","name":"MetadataUpdate","inputs":[{"name":"_tokenId","type":"uint256","indexed":false,"internalType":"uint256"}],"anonymous":false},{"type":"event","name":"Transfer","inputs":[{"name":"from","type":"address","indexed":true,"internalType":"address"},{"name":"to","type":"address","indexed":true,"internalType":"address"},{"name":"tokenId","type":"uint256","indexed":true,"internalType":"uint256"}],"anonymous":false},{"type":"error","name":"ERC721IncorrectOwner","inputs":[{"name":"sender","type":"address","internalType":"address"},{"name":"tokenId","type":"uint256","internalType":"uint256"},{"name":"owner","type":"address","internalType":"address"}]},{"type":"error","name":"ERC721InsufficientApproval","inputs":[{"name":"operator","type":"address","internalType":"address"},{"name":"tokenId","type":"uint256","internalType":"uint256"}]},{"type":"error","name":"ERC721InvalidApprover","inputs":[{"name":"approver","type":"address","internalType":"address"}]},{"type":"error","name":"ERC721InvalidOperator","inputs":[{"name":"operator","type":"address","internalType":"address"}]},{"type":"error","name":"ERC721InvalidOwner","inputs":[{"name":"owner","type":"address","internalType":"address"}]},{"type":"error","name":"ERC721InvalidReceiver","inputs":[{"name":"receiver","type":"address","internalType":"address"}]},{"type":"error","name":"ERC721InvalidSender","inputs":[{"name":"sender","type":"address","internalType":"address"}]},{"type":"error","name":"ERC721NonexistentToken","inputs":[{"name":"tokenId","type":"uint256","internalType":"uint256"}]}],"bytecode":{"object":"0x608060405234801561000f575f5ffd5b50604051612b3d380380612b3d83398181016040528101906100319190610122565b6040518060400160405280600c81526020017f557365722050726f66696c6500000000000000000000000000000000000000008152506040518060400160405280600c81526020017f557365722050726f66696c650000000000000000000000000000000000000000815250815f90816100ab919061038a565b5080600190816100bb919061038a565b50505050610459565b5f5ffd5b5f73ffffffffffffffffffffffffffffffffffffffff82169050919050565b5f6100f1826100c8565b9050919050565b610101816100e7565b811461010b575f5ffd5b50565b5f8151905061011c816100f8565b92915050565b5f60208284031215610137576101366100c4565b5b5f6101448482850161010e565b91505092915050565b5f81519050919050565b7f4e487b71000000000000000000000000000000000000000000000000000000005f52604160045260245ffd5b7f4e487b71000000000000000000000000000000000000000000000000000000005f52602260045260245ffd5b5f60028204905060018216806101c857607f821691505b6020821081036101db576101da610184565b5b50919050565b5f819050815f5260205f209050919050565b5f6020601f8301049050919050565b5f82821b905092915050565b5f6008830261023d7fffffffffffffffffffffffffffffffffffffffffffffffffffffffffffffffff82610202565b6102478683610202565b95508019841693508086168417925050509392505050565b5f819050919050565b5f819050919050565b5f61028b6102866102818461025f565b610268565b61025f565b9050919050565b5f819050919050565b6102a483610271565b6102b86102b082610292565b84845461020e565b825550505050565b5f5f905090565b6102cf6102c0565b6102da81848461029b565b505050565b5b818110156102fd576102f25f826102c7565b6001810190506102e0565b5050565b601f82111561034257610313816101e1565b61031c846101f3565b8101602085101561032b578190505b61033f610337856101f3565b8301826102df565b50505b505050565b5f82821c905092915050565b5f6103625f1984600802610347565b1980831691505092915050565b5f61037a8383610353565b9150826002028217905092915050565b6103938261014d565b67ffffffffffffffff8111156103ac576103ab610157565b5b6103b682546101b1565b6103c1828285610301565b5f60209050601f8311600181146103f2575f84156103e0578287015190505b6103ea858261036f565b865550610451565b601f198416610400866101e1565b5f5b8281101561042757848901518255600182019150602085019450602081019050610402565b868310156104445784890151610440601f891682610353565b8355505b6001600288020188555050505b505050505050565b6126d7806104665f395ff3fe608060405234801561000f575f5ffd5b50600436106100f3575f3560e01c806370a0823111610095578063c81c1cad11610064578063c81c1cad1461027f578063c87b56dd146102af578063e985e9c5146102df578063eacabe141461030f576100f3565b806370a08231146101f957806395d89b4114610229578063a22cb46514610247578063b88d4fde14610263576100f3565b8063095ea7b3116100d1578063095ea7b31461017557806323b872dd1461019157806342842e0e146101ad5780636352211e146101c9576100f3565b806301ffc9a7146100f757806306fdde0314610127578063081812fc14610145575b5f5ffd5b610111600480360381019061010c9190611a49565b61033f565b60405161011e9190611a8e565b60405180910390f35b61012f61039f565b60405161013c9190611b17565b60405180910390f35b61015f600480360381019061015a9190611b6a565b61042e565b60405161016c9190611bd4565b60405180910390f35b61018f600480360381019061018a9190611c17565b610449565b005b6101ab60048036038101906101a69190611c55565b61045f565b005b6101c760048036038101906101c29190611c55565b61055e565b005b6101e360048036038101906101de9190611b6a565b61057d565b6040516101f09190611bd4565b60405180910390f35b610213600480360381019061020e9190611ca5565b61058e565b6040516102209190611cdf565b60405180910390f35b610231610644565b60405161023e9190611b17565b60405180910390f35b610261600480360381019061025c9190611d22565b6106d4565b005b61027d60048036038101906102789190611e8c565b6106ea565b005b61029960048036038101906102949190611ca5565b61070f565b6040516102a69190611b17565b60405180910390f35b6102c960048036038101906102c49190611b6a565b6107d7565b6040516102d69190611b17565b60405180910390f35b6102f960048036038101906102f49190611f0c565b6108e2565b6040516103069190611a8e565b60405180910390f35b61032960048036038101906103249190611fe8565b610970565b6040516103369190611cdf565b60405180910390f35b5f634906490660e01b7bffffffffffffffffffffffffffffffffffffffffffffffffffffffff1916827bffffffffffffffffffffffffffffffffffffffffffffffffffffffff19161480610398575061039782610a7d565b5b9050919050565b60605f80546103ad9061206f565b80601f01602080910402602001604051908101604052809291908181526020018280546103d99061206f565b80156104245780601f106103fb57610100808354040283529160200191610424565b820191905f5260205f20905b81548152906001019060200180831161040757829003601f168201915b5050505050905090565b5f61043882610b5e565b5061044282610be4565b9050919050565b61045b8282610456610c1d565b610c24565b5050565b5f73ffffffffffffffffffffffffffffffffffffffff168273ffffffffffffffffffffffffffffffffffffffff16036104cf575f6040517f64a0ae920000000000000000000000000000000000000000000000000000000081526004016104c69190611bd4565b60405180910390fd5b5f6104e283836104dd610c1d565b610c36565b90508373ffffffffffffffffffffffffffffffffffffffff168173ffffffffffffffffffffffffffffffffffffffff1614610558578382826040517f64283d7b00000000000000000000000000000000000000000000000000000000815260040161054f9392919061209f565b60405180910390fd5b50505050565b61057883838360405180602001604052805f8152506106ea565b505050565b5f61058782610b5e565b9050919050565b5f5f73ffffffffffffffffffffffffffffffffffffffff168273ffffffffffffffffffffffffffffffffffffffff16036105ff575f6040517f89c62b640000000000000000000000000000000000000000000000000000000081526004016105f69190611bd4565b60405180910390fd5b60035f8373ffffffffffffffffffffffffffffffffffffffff1673ffffffffffffffffffffffffffffffffffffffff1681526020019081526020015f20549050919050565b6060600180546106539061206f565b80601f016020809104026020016040519081016040528092919081815260200182805461067f9061206f565b80156106ca5780601f106106a1576101008083540402835291602001916106ca565b820191905f5260205f20905b8154815290600101906020018083116106ad57829003601f168201915b5050505050905090565b6106e66106df610c1d565b8383610cbb565b5050565b6106f584848461045f565b610709610700610c1d565b85858585610e24565b50505050565b60605f60085f8473ffffffffffffffffffffffffffffffffffffffff1673ffffffffffffffffffffffffffffffffffffffff1681526020019081526020015f206040518060400160405290815f82015f9054906101000a900460ff161515151581526020016001820154815250509050805f01516107c2576040517f08c379a00000000000000000000000000000000000000000000000000000000081526004016107b990612144565b60405180910390fd5b6107cf81602001516107d7565b915050919050565b60606107e282610b5e565b505f60065f8481526020019081526020015f2080546108009061206f565b80601f016020809104026020016040519081016040528092919081815260200182805461082c9061206f565b80156108775780601f1061084e57610100808354040283529160200191610877565b820191905f5260205f20905b81548152906001019060200180831161085a57829003601f168201915b505050505090505f610887610fd0565b90505f81510361089b5781925050506108dd565b5f825111156108cf5780826040516020016108b792919061219c565b604051602081830303815290604052925050506108dd565b6108d884610fe6565b925050505b919050565b5f60055f8473ffffffffffffffffffffffffffffffffffffffff1673ffffffffffffffffffffffffffffffffffffffff1681526020019081526020015f205f8373ffffffffffffffffffffffffffffffffffffffff1673ffffffffffffffffffffffffffffffffffffffff1681526020019081526020015f205f9054906101000a900460ff16905092915050565b5f60075f815480929190610983906121ec565b91905055505f6007549050610998848261104c565b6109a28184611069565b5f60085f8673ffffffffffffffffffffffffffffffffffffffff1673ffffffffffffffffffffffffffffffffffffffff1681526020019081526020015f206040518060400160405290815f82015f9054906101000a900460ff161515151581526020016001820154815250509050805f0151610a37576001815f01901515908115158152505081816020018181525050610a72565b6040517f08c379a0000000000000000000000000000000000000000000000000000000008152600401610a699061227d565b60405180910390fd5b819250505092915050565b5f7f80ac58cd000000000000000000000000000000000000000000000000000000007bffffffffffffffffffffffffffffffffffffffffffffffffffffffff1916827bffffffffffffffffffffffffffffffffffffffffffffffffffffffff19161480610b4757507f5b5e139f000000000000000000000000000000000000000000000000000000007bffffffffffffffffffffffffffffffffffffffffffffffffffffffff1916827bffffffffffffffffffffffffffffffffffffffffffffffffffffffff1916145b80610b575750610b56826110c3565b5b9050919050565b5f5f610b698361112c565b90505f73ffffffffffffffffffffffffffffffffffffffff168173ffffffffffffffffffffffffffffffffffffffff1603610bdb57826040517f7e273289000000000000000000000000000000000000000000000000000000008152600401610bd29190611cdf565b60405180910390fd5b80915050919050565b5f60045f8381526020019081526020015f205f9054906101000a900473ffffffffffffffffffffffffffffffffffffffff169050919050565b5f33905090565b610c318383836001611165565b505050565b5f610c42848484611324565b505f73ffffffffffffffffffffffffffffffffffffffff168273ffffffffffffffffffffffffffffffffffffffff1614610cb1576040517f08c379a0000000000000000000000000000000000000000000000000000000008152600401610ca8906122e5565b60405180910390fd5b8390509392505050565b5f73ffffffffffffffffffffffffffffffffffffffff168273ffffffffffffffffffffffffffffffffffffffff1603610d2b57816040517f5b08ba18000000000000000000000000000000000000000000000000000000008152600401610d229190611bd4565b60405180910390fd5b8060055f8573ffffffffffffffffffffffffffffffffffffffff1673ffffffffffffffffffffffffffffffffffffffff1681526020019081526020015f205f8473ffffffffffffffffffffffffffffffffffffffff1673ffffffffffffffffffffffffffffffffffffffff1681526020019081526020015f205f6101000a81548160ff0219169083151502179055508173ffffffffffffffffffffffffffffffffffffffff168373ffffffffffffffffffffffffffffffffffffffff167f17307eab39ab6107e8899845ad3d59bd9653f200f220920489ca2b5937696c3183604051610e179190611a8e565b60405180910390a3505050565b5f8373ffffffffffffffffffffffffffffffffffffffff163b1115610fc9578273ffffffffffffffffffffffffffffffffffffffff1663150b7a02868685856040518563ffffffff1660e01b8152600401610e829493929190612355565b6020604051808303815f875af1925050508015610ebd57506040513d601f19601f82011682018060405250810190610eba91906123b3565b60015b610f3e573d805f8114610eeb576040519150601f19603f3d011682016040523d82523d5f602084013e610ef0565b606091505b505f815103610f3657836040517f64a0ae92000000000000000000000000000000000000000000000000000000008152600401610f2d9190611bd4565b60405180910390fd5b805181602001fd5b63150b7a0260e01b7bffffffffffffffffffffffffffffffffffffffffffffffffffffffff1916817bffffffffffffffffffffffffffffffffffffffffffffffffffffffff191614610fc757836040517f64a0ae92000000000000000000000000000000000000000000000000000000008152600401610fbe9190611bd4565b60405180910390fd5b505b5050505050565b606060405180602001604052805f815250905090565b6060610ff182610b5e565b505f610ffb610fd0565b90505f8151116110195760405180602001604052805f815250611044565b806110238461152f565b60405160200161103492919061219c565b6040516020818303038152906040525b915050919050565b611065828260405180602001604052805f8152506115f9565b5050565b8060065f8481526020019081526020015f209081611087919061257e565b507ff8e1a15aba9398e019f0b49df1a4fde98ee17ae345cb5f6b5e2c27f5033e8ce7826040516110b79190611cdf565b60405180910390a15050565b5f7f01ffc9a7000000000000000000000000000000000000000000000000000000007bffffffffffffffffffffffffffffffffffffffffffffffffffffffff1916827bffffffffffffffffffffffffffffffffffffffffffffffffffffffff1916149050919050565b5f60025f8381526020019081526020015f205f9054906101000a900473ffffffffffffffffffffffffffffffffffffffff169050919050565b808061119d57505f73ffffffffffffffffffffffffffffffffffffffff168273ffffffffffffffffffffffffffffffffffffffff1614155b156112cf575f6111ac84610b5e565b90505f73ffffffffffffffffffffffffffffffffffffffff168373ffffffffffffffffffffffffffffffffffffffff161415801561121657508273ffffffffffffffffffffffffffffffffffffffff168173ffffffffffffffffffffffffffffffffffffffff1614155b8015611229575061122781846108e2565b155b1561126b57826040517fa9fbf51f0000000000000000000000000000000000000000000000000000000081526004016112629190611bd4565b60405180910390fd5b81156112cd57838573ffffffffffffffffffffffffffffffffffffffff168273ffffffffffffffffffffffffffffffffffffffff167f8c5be1e5ebec7d5bd14f71427d1e84f3dd0314c0f7b2291e5b200ac8c7c3b92560405160405180910390a45b505b8360045f8581526020019081526020015f205f6101000a81548173ffffffffffffffffffffffffffffffffffffffff021916908373ffffffffffffffffffffffffffffffffffffffff16021790555050505050565b5f5f61132f8461112c565b90505f73ffffffffffffffffffffffffffffffffffffffff168373ffffffffffffffffffffffffffffffffffffffff16146113705761136f81848661161c565b5b5f73ffffffffffffffffffffffffffffffffffffffff168173ffffffffffffffffffffffffffffffffffffffff16146113fb576113af5f855f5f611165565b600160035f8373ffffffffffffffffffffffffffffffffffffffff1673ffffffffffffffffffffffffffffffffffffffff1681526020019081526020015f205f82825403925050819055505b5f73ffffffffffffffffffffffffffffffffffffffff168573ffffffffffffffffffffffffffffffffffffffff161461147a57600160035f8773ffffffffffffffffffffffffffffffffffffffff1673ffffffffffffffffffffffffffffffffffffffff1681526020019081526020015f205f82825401925050819055505b8460025f8681526020019081526020015f205f6101000a81548173ffffffffffffffffffffffffffffffffffffffff021916908373ffffffffffffffffffffffffffffffffffffffff160217905550838573ffffffffffffffffffffffffffffffffffffffff168273ffffffffffffffffffffffffffffffffffffffff167fddf252ad1be2c89b69c2b068fc378daa952ba7f163c4a11628f55a4df523b3ef60405160405180910390a4809150509392505050565b60605f600161153d846116df565b0190505f8167ffffffffffffffff81111561155b5761155a611d68565b5b6040519080825280601f01601f19166020018201604052801561158d5781602001600182028036833780820191505090505b5090505f82602001820190505b6001156115ee578080600190039150507f3031323334353637383961626364656600000000000000000000000000000000600a86061a8153600a85816115e3576115e261264d565b5b0494505f850361159a575b819350505050919050565b6116038383611830565b61161761160e610c1d565b5f858585610e24565b505050565b611627838383611923565b6116da575f73ffffffffffffffffffffffffffffffffffffffff168373ffffffffffffffffffffffffffffffffffffffff160361169b57806040517f7e2732890000000000000000000000000000000000000000000000000000000081526004016116929190611cdf565b60405180910390fd5b81816040517f177e802f0000000000000000000000000000000000000000000000000000000081526004016116d192919061267a565b60405180910390fd5b505050565b5f5f5f90507a184f03e93ff9f4daa797ed6e38ed64bf6a1f010000000000000000831061173b577a184f03e93ff9f4daa797ed6e38ed64bf6a1f01000000000000000083816117315761173061264d565b5b0492506040810190505b6d04ee2d6d415b85acef81000000008310611778576d04ee2d6d415b85acef8100000000838161176e5761176d61264d565b5b0492506020810190505b662386f26fc1000083106117a757662386f26fc10000838161179d5761179c61264d565b5b0492506010810190505b6305f5e10083106117d0576305f5e10083816117c6576117c561264d565b5b0492506008810190505b61271083106117f55761271083816117eb576117ea61264d565b5b0492506004810190505b60648310611818576064838161180e5761180d61264d565b5b0492506002810190505b600a8310611827576001810190505b80915050919050565b5f73ffffffffffffffffffffffffffffffffffffffff168273ffffffffffffffffffffffffffffffffffffffff16036118a0575f6040517f64a0ae920000000000000000000000000000000000000000000000000000000081526004016118979190611bd4565b60405180910390fd5b5f6118ac83835f610c36565b90505f73ffffffffffffffffffffffffffffffffffffffff168173ffffffffffffffffffffffffffffffffffffffff161461191e575f6040517f73c6ac6e0000000000000000000000000000000000000000000000000000000081526004016119159190611bd4565b60405180910390fd5b505050565b5f5f73ffffffffffffffffffffffffffffffffffffffff168373ffffffffffffffffffffffffffffffffffffffff16141580156119da57508273ffffffffffffffffffffffffffffffffffffffff168473ffffffffffffffffffffffffffffffffffffffff16148061199b575061199a84846108e2565b5b806119d957508273ffffffffffffffffffffffffffffffffffffffff166119c183610be4565b73ffffffffffffffffffffffffffffffffffffffff16145b5b90509392505050565b5f604051905090565b5f5ffd5b5f5ffd5b5f7fffffffff0000000000000000000000000000000000000000000000000000000082169050919050565b611a28816119f4565b8114611a32575f5ffd5b50565b5f81359050611a4381611a1f565b92915050565b5f60208284031215611a5e57611a5d6119ec565b5b5f611a6b84828501611a35565b91505092915050565b5f8115159050919050565b611a8881611a74565b82525050565b5f602082019050611aa15f830184611a7f565b92915050565b5f81519050919050565b5f82825260208201905092915050565b8281835e5f83830152505050565b5f601f19601f8301169050919050565b5f611ae982611aa7565b611af38185611ab1565b9350611b03818560208601611ac1565b611b0c81611acf565b840191505092915050565b5f6020820190508181035f830152611b2f8184611adf565b905092915050565b5f819050919050565b611b4981611b37565b8114611b53575f5ffd5b50565b5f81359050611b6481611b40565b92915050565b5f60208284031215611b7f57611b7e6119ec565b5b5f611b8c84828501611b56565b91505092915050565b5f73ffffffffffffffffffffffffffffffffffffffff82169050919050565b5f611bbe82611b95565b9050919050565b611bce81611bb4565b82525050565b5f602082019050611be75f830184611bc5565b92915050565b611bf681611bb4565b8114611c00575f5ffd5b50565b5f81359050611c1181611bed565b92915050565b5f5f60408385031215611c2d57611c2c6119ec565b5b5f611c3a85828601611c03565b9250506020611c4b85828601611b56565b9150509250929050565b5f5f5f60608486031215611c6c57611c6b6119ec565b5b5f611c7986828701611c03565b9350506020611c8a86828701611c03565b9250506040611c9b86828701611b56565b9150509250925092565b5f60208284031215611cba57611cb96119ec565b5b5f611cc784828501611c03565b91505092915050565b611cd981611b37565b82525050565b5f602082019050611cf25f830184611cd0565b92915050565b611d0181611a74565b8114611d0b575f5ffd5b50565b5f81359050611d1c81611cf8565b92915050565b5f5f60408385031215611d3857611d376119ec565b5b5f611d4585828601611c03565b9250506020611d5685828601611d0e565b9150509250929050565b5f5ffd5b5f5ffd5b7f4e487b71000000000000000000000000000000000000000000000000000000005f52604160045260245ffd5b611d9e82611acf565b810181811067ffffffffffffffff82111715611dbd57611dbc611d68565b5b80604052505050565b5f611dcf6119e3565b9050611ddb8282611d95565b919050565b5f67ffffffffffffffff821115611dfa57611df9611d68565b5b611e0382611acf565b9050602081019050919050565b828183375f83830152505050565b5f611e30611e2b84611de0565b611dc6565b905082815260208101848484011115611e4c57611e4b611d64565b5b611e57848285611e10565b509392505050565b5f82601f830112611e7357611e72611d60565b5b8135611e83848260208601611e1e565b91505092915050565b5f5f5f5f60808587031215611ea457611ea36119ec565b5b5f611eb187828801611c03565b9450506020611ec287828801611c03565b9350506040611ed387828801611b56565b925050606085013567ffffffffffffffff811115611ef457611ef36119f0565b5b611f0087828801611e5f565b91505092959194509250565b5f5f60408385031215611f2257611f216119ec565b5b5f611f2f85828601611c03565b9250506020611f4085828601611c03565b9150509250929050565b5f67ffffffffffffffff821115611f6457611f63611d68565b5b611f6d82611acf565b9050602081019050919050565b5f611f8c611f8784611f4a565b611dc6565b905082815260208101848484011115611fa857611fa7611d64565b5b611fb3848285611e10565b509392505050565b5f82601f830112611fcf57611fce611d60565b5b8135611fdf848260208601611f7a565b91505092915050565b5f5f60408385031215611ffe57611ffd6119ec565b5b5f61200b85828601611c03565b925050602083013567ffffffffffffffff81111561202c5761202b6119f0565b5b61203885828601611fbb565b9150509250929050565b7f4e487b71000000000000000000000000000000000000000000000000000000005f52602260045260245ffd5b5f600282049050600182168061208657607f821691505b60208210810361209957612098612042565b5b50919050565b5f6060820190506120b25f830186611bc5565b6120bf6020830185611cd0565b6120cc6040830184611bc5565b949350505050565b7f5573657220686173206e6f742079657420636c61696d656420612070726f66695f8201527f6c65000000000000000000000000000000000000000000000000000000000000602082015250565b5f61212e602283611ab1565b9150612139826120d4565b604082019050919050565b5f6020820190508181035f83015261215b81612122565b9050919050565b5f81905092915050565b5f61217682611aa7565b6121808185612162565b9350612190818560208601611ac1565b80840191505092915050565b5f6121a7828561216c565b91506121b3828461216c565b91508190509392505050565b7f4e487b71000000000000000000000000000000000000000000000000000000005f52601160045260245ffd5b5f6121f682611b37565b91507fffffffffffffffffffffffffffffffffffffffffffffffffffffffffffffffff8203612228576122276121bf565b5b600182019050919050565b7f4f776e65722068617320616c7261647920636c61696d656420616e204e4654005f82015250565b5f612267601f83611ab1565b915061227282612233565b602082019050919050565b5f6020820190508181035f8301526122948161225b565b9050919050565b7f536f756c20426f756e64000000000000000000000000000000000000000000005f82015250565b5f6122cf600a83611ab1565b91506122da8261229b565b602082019050919050565b5f6020820190508181035f8301526122fc816122c3565b9050919050565b5f81519050919050565b5f82825260208201905092915050565b5f61232782612303565b612331818561230d565b9350612341818560208601611ac1565b61234a81611acf565b840191505092915050565b5f6080820190506123685f830187611bc5565b6123756020830186611bc5565b6123826040830185611cd0565b8181036060830152612394818461231d565b905095945050505050565b5f815190506123ad81611a1f565b92915050565b5f602082840312156123c8576123c76119ec565b5b5f6123d58482850161239f565b91505092915050565b5f819050815f5260205f209050919050565b5f6020601f8301049050919050565b5f82821b905092915050565b5f6008830261243a7fffffffffffffffffffffffffffffffffffffffffffffffffffffffffffffffff826123ff565b61244486836123ff565b95508019841693508086168417925050509392505050565b5f819050919050565b5f61247f61247a61247584611b37565b61245c565b611b37565b9050919050565b5f819050919050565b61249883612465565b6124ac6124a482612486565b84845461240b565b825550505050565b5f5f905090565b6124c36124b4565b6124ce81848461248f565b505050565b5b818110156124f1576124e65f826124bb565b6001810190506124d4565b5050565b601f82111561253657612507816123de565b612510846123f0565b8101602085101561251f578190505b61253361252b856123f0565b8301826124d3565b50505b505050565b5f82821c905092915050565b5f6125565f198460080261253b565b1980831691505092915050565b5f61256e8383612547565b9150826002028217905092915050565b61258782611aa7565b67ffffffffffffffff8111156125a05761259f611d68565b5b6125aa825461206f565b6125b58282856124f5565b5f60209050601f8311600181146125e6575f84156125d4578287015190505b6125de8582612563565b865550612645565b601f1984166125f4866123de565b5f5b8281101561261b578489015182556001820191506020850194506020810190506125f6565b868310156126385784890151612634601f891682612547565b8355505b6001600288020188555050505b505050505050565b7f4e487b71000000000000000000000000000000000000000000000000000000005f52601260045260245ffd5b5f60408201905061268d5f830185611bc5565b61269a6020830184611cd0565b939250505056fea2646970667358221220a6d2db146a198c94136cd9826186ca5fbced9a584099b38b9779b9a6ccd3d27764736f6c634300081c0033","linkReferences":{}},"methodIdentifiers":{"approve(address,uint256)":"095ea7b3","balanceOf(address)":"70a08231","findNft(address)":"c81c1cad","getApproved(uint256)":"081812fc","isApprovedForAll(address,address)":"e985e9c5","mintNFT(address,string)":"eacabe14","name()":"06fdde03","ownerOf(uint256)":"6352211e","safeTransferFrom(address,address,uint256)":"42842e0e","safeTransferFrom(address,address,uint256,bytes)":"b88d4fde","setApprovalForAll(address,bool)":"a22cb465","supportsInterface(bytes4)":"01ffc9a7","symbol()":"95d89b41","tokenURI(uint256)":"c87b56dd","transferFrom(address,address,uint256)":"23b872dd"},"id":18}