{
	"abi": [
		{
			"type": "constructor",
			"inputs": [
				{
					"name": "initialOwner",
					"type": "address",
					"internalType": "address"
				}
			],
			"stateMutability": "nonpayable"
		},
		{
			"type": "function",
			"name": "approve",
			"inputs": [
				{
					"name": "to",
					"type": "address",
					"internalType": "address"
				},
				{
					"name": "tokenId",
					"type": "uint256",
					"internalType": "uint256"
				}
			],
			"outputs": [],
			"stateMutability": "nonpayable"
		},
		{
			"type": "function",
			"name": "balanceOf",
			"inputs": [
				{
					"name": "owner",
					"type": "address",
					"internalType": "address"
				}
			],
			"outputs": [
				{
					"name": "",
					"type": "uint256",
					"internalType": "uint256"
				}
			],
			"stateMutability": "view"
		},
		{
			"type": "function",
			"name": "getApproved",
			"inputs": [
				{
					"name": "tokenId",
					"type": "uint256",
					"internalType": "uint256"
				}
			],
			"outputs": [
				{
					"name": "",
					"type": "address",
					"internalType": "address"
				}
			],
			"stateMutability": "view"
		},
		{
			"type": "function",
			"name": "getProfileNFT",
			"inputs": [
				{
					"name": "recipient",
					"type": "address",
					"internalType": "address"
				}
			],
			"outputs": [
				{
					"name": "",
					"type": "string",
					"internalType": "string"
				}
			],
			"stateMutability": "view"
		},
		{
			"type": "function",
			"name": "isApprovedForAll",
			"inputs": [
				{
					"name": "owner",
					"type": "address",
					"internalType": "address"
				},
				{
					"name": "operator",
					"type": "address",
					"internalType": "address"
				}
			],
			"outputs": [
				{
					"name": "",
					"type": "bool",
					"internalType": "bool"
				}
			],
			"stateMutability": "view"
		},
		{
			"type": "function",
			"name": "mintNFT",
			"inputs": [
				{
					"name": "recipient",
					"type": "address",
					"internalType": "address"
				},
				{
					"name": "tokenURI",
					"type": "string",
					"internalType": "string"
				}
			],
			"outputs": [
				{
					"name": "",
					"type": "uint256",
					"internalType": "uint256"
				}
			],
			"stateMutability": "nonpayable"
		},
		{
			"type": "function",
			"name": "name",
			"inputs": [],
			"outputs": [
				{
					"name": "",
					"type": "string",
					"internalType": "string"
				}
			],
			"stateMutability": "view"
		},
		{
			"type": "function",
			"name": "ownerOf",
			"inputs": [
				{
					"name": "tokenId",
					"type": "uint256",
					"internalType": "uint256"
				}
			],
			"outputs": [
				{
					"name": "",
					"type": "address",
					"internalType": "address"
				}
			],
			"stateMutability": "view"
		},
		{
			"type": "function",
			"name": "safeTransferFrom",
			"inputs": [
				{
					"name": "from",
					"type": "address",
					"internalType": "address"
				},
				{
					"name": "to",
					"type": "address",
					"internalType": "address"
				},
				{
					"name": "tokenId",
					"type": "uint256",
					"internalType": "uint256"
				}
			],
			"outputs": [],
			"stateMutability": "nonpayable"
		},
		{
			"type": "function",
			"name": "safeTransferFrom",
			"inputs": [
				{
					"name": "from",
					"type": "address",
					"internalType": "address"
				},
				{
					"name": "to",
					"type": "address",
					"internalType": "address"
				},
				{
					"name": "tokenId",
					"type": "uint256",
					"internalType": "uint256"
				},
				{
					"name": "data",
					"type": "bytes",
					"internalType": "bytes"
				}
			],
			"outputs": [],
			"stateMutability": "nonpayable"
		},
		{
			"type": "function",
			"name": "setApprovalForAll",
			"inputs": [
				{
					"name": "operator",
					"type": "address",
					"internalType": "address"
				},
				{
					"name": "approved",
					"type": "bool",
					"internalType": "bool"
				}
			],
			"outputs": [],
			"stateMutability": "nonpayable"
		},
		{
			"type": "function",
			"name": "supportsInterface",
			"inputs": [
				{
					"name": "interfaceId",
					"type": "bytes4",
					"internalType": "bytes4"
				}
			],
			"outputs": [
				{
					"name": "",
					"type": "bool",
					"internalType": "bool"
				}
			],
			"stateMutability": "view"
		},
		{
			"type": "function",
			"name": "symbol",
			"inputs": [],
			"outputs": [
				{
					"name": "",
					"type": "string",
					"internalType": "string"
				}
			],
			"stateMutability": "view"
		},
		{
			"type": "function",
			"name": "tokenURI",
			"inputs": [
				{
					"name": "tokenId",
					"type": "uint256",
					"internalType": "uint256"
				}
			],
			"outputs": [
				{
					"name": "",
					"type": "string",
					"internalType": "string"
				}
			],
			"stateMutability": "view"
		},
		{
			"type": "function",
			"name": "transferFrom",
			"inputs": [
				{
					"name": "from",
					"type": "address",
					"internalType": "address"
				},
				{
					"name": "to",
					"type": "address",
					"internalType": "address"
				},
				{
					"name": "tokenId",
					"type": "uint256",
					"internalType": "uint256"
				}
			],
			"outputs": [],
			"stateMutability": "nonpayable"
		},
		{
			"type": "event",
			"name": "Approval",
			"inputs": [
				{
					"name": "owner",
					"type": "address",
					"indexed": true,
					"internalType": "address"
				},
				{
					"name": "approved",
					"type": "address",
					"indexed": true,
					"internalType": "address"
				},
				{
					"name": "tokenId",
					"type": "uint256",
					"indexed": true,
					"internalType": "uint256"
				}
			],
			"anonymous": false
		},
		{
			"type": "event",
			"name": "ApprovalForAll",
			"inputs": [
				{
					"name": "owner",
					"type": "address",
					"indexed": true,
					"internalType": "address"
				},
				{
					"name": "operator",
					"type": "address",
					"indexed": true,
					"internalType": "address"
				},
				{
					"name": "approved",
					"type": "bool",
					"indexed": false,
					"internalType": "bool"
				}
			],
			"anonymous": false
		},
		{
			"type": "event",
			"name": "BatchMetadataUpdate",
			"inputs": [
				{
					"name": "_fromTokenId",
					"type": "uint256",
					"indexed": false,
					"internalType": "uint256"
				},
				{
					"name": "_toTokenId",
					"type": "uint256",
					"indexed": false,
					"internalType": "uint256"
				}
			],
			"anonymous": false
		},
		{
			"type": "event",
			"name": "MetadataUpdate",
			"inputs": [
				{
					"name": "_tokenId",
					"type": "uint256",
					"indexed": false,
					"internalType": "uint256"
				}
			],
			"anonymous": false
		},
		{
			"type": "event",
			"name": "Transfer",
			"inputs": [
				{
					"name": "from",
					"type": "address",
					"indexed": true,
					"internalType": "address"
				},
				{
					"name": "to",
					"type": "address",
					"indexed": true,
					"internalType": "address"
				},
				{
					"name": "tokenId",
					"type": "uint256",
					"indexed": true,
					"internalType": "uint256"
				}
			],
			"anonymous": false
		},
		{
			"type": "error",
			"name": "ERC721IncorrectOwner",
			"inputs": [
				{
					"name": "sender",
					"type": "address",
					"internalType": "address"
				},
				{
					"name": "tokenId",
					"type": "uint256",
					"internalType": "uint256"
				},
				{
					"name": "owner",
					"type": "address",
					"internalType": "address"
				}
			]
		},
		{
			"type": "error",
			"name": "ERC721InsufficientApproval",
			"inputs": [
				{
					"name": "operator",
					"type": "address",
					"internalType": "address"
				},
				{
					"name": "tokenId",
					"type": "uint256",
					"internalType": "uint256"
				}
			]
		},
		{
			"type": "error",
			"name": "ERC721InvalidApprover",
			"inputs": [
				{
					"name": "approver",
					"type": "address",
					"internalType": "address"
				}
			]
		},
		{
			"type": "error",
			"name": "ERC721InvalidOperator",
			"inputs": [
				{
					"name": "operator",
					"type": "address",
					"internalType": "address"
				}
			]
		},
		{
			"type": "error",
			"name": "ERC721InvalidOwner",
			"inputs": [
				{
					"name": "owner",
					"type": "address",
					"internalType": "address"
				}
			]
		},
		{
			"type": "error",
			"name": "ERC721InvalidReceiver",
			"inputs": [
				{
					"name": "receiver",
					"type": "address",
					"internalType": "address"
				}
			]
		},
		{
			"type": "error",
			"name": "ERC721InvalidSender",
			"inputs": [
				{
					"name": "sender",
					"type": "address",
					"internalType": "address"
				}
			]
		},
		{
			"type": "error",
			"name": "ERC721NonexistentToken",
			"inputs": [
				{
					"name": "tokenId",
					"type": "uint256",
					"internalType": "uint256"
				}
			]
		}
	],
	"bytecode": {
		"object": "0x608060405234801561000f575f5ffd5b506040516129f03803806129f083398181016040528101906100319190610122565b6040518060400160405280600581526020017f4d794e46540000000000000000000000000000000000000000000000000000008152506040518060400160405280600381526020017f4e46540000000000000000000000000000000000000000000000000000000000815250815f90816100ab919061038a565b5080600190816100bb919061038a565b50505050610459565b5f5ffd5b5f73ffffffffffffffffffffffffffffffffffffffff82169050919050565b5f6100f1826100c8565b9050919050565b610101816100e7565b811461010b575f5ffd5b50565b5f8151905061011c816100f8565b92915050565b5f60208284031215610137576101366100c4565b5b5f6101448482850161010e565b91505092915050565b5f81519050919050565b7f4e487b71000000000000000000000000000000000000000000000000000000005f52604160045260245ffd5b7f4e487b71000000000000000000000000000000000000000000000000000000005f52602260045260245ffd5b5f60028204905060018216806101c857607f821691505b6020821081036101db576101da610184565b5b50919050565b5f819050815f5260205f209050919050565b5f6020601f8301049050919050565b5f82821b905092915050565b5f6008830261023d7fffffffffffffffffffffffffffffffffffffffffffffffffffffffffffffffff82610202565b6102478683610202565b95508019841693508086168417925050509392505050565b5f819050919050565b5f819050919050565b5f61028b6102866102818461025f565b610268565b61025f565b9050919050565b5f819050919050565b6102a483610271565b6102b86102b082610292565b84845461020e565b825550505050565b5f5f905090565b6102cf6102c0565b6102da81848461029b565b505050565b5b818110156102fd576102f25f826102c7565b6001810190506102e0565b5050565b601f82111561034257610313816101e1565b61031c846101f3565b8101602085101561032b578190505b61033f610337856101f3565b8301826102df565b50505b505050565b5f82821c905092915050565b5f6103625f1984600802610347565b1980831691505092915050565b5f61037a8383610353565b9150826002028217905092915050565b6103938261014d565b67ffffffffffffffff8111156103ac576103ab610157565b5b6103b682546101b1565b6103c1828285610301565b5f60209050601f8311600181146103f2575f84156103e0578287015190505b6103ea858261036f565b865550610451565b601f198416610400866101e1565b5f5b8281101561042757848901518255600182019150602085019450602081019050610402565b868310156104445784890151610440601f891682610353565b8355505b6001600288020188555050505b505050505050565b61258a806104665f395ff3fe608060405234801561000f575f5ffd5b50600436106100f3575f3560e01c80636352211e11610095578063b88d4fde11610064578063b88d4fde14610293578063c87b56dd146102af578063e985e9c5146102df578063eacabe141461030f576100f3565b80636352211e146101f957806370a082311461022957806395d89b4114610259578063a22cb46514610277576100f3565b8063095ea7b3116100d1578063095ea7b31461017557806323b872dd1461019157806342842e0e146101ad5780635272aba4146101c9576100f3565b806301ffc9a7146100f757806306fdde0314610127578063081812fc14610145575b5f5ffd5b610111600480360381019061010c919061198a565b61033f565b60405161011e91906119cf565b60405180910390f35b61012f61039f565b60405161013c9190611a58565b60405180910390f35b61015f600480360381019061015a9190611aab565b61042e565b60405161016c9190611b15565b60405180910390f35b61018f600480360381019061018a9190611b58565b610449565b005b6101ab60048036038101906101a69190611b96565b61045f565b005b6101c760048036038101906101c29190611b96565b61055e565b005b6101e360048036038101906101de9190611be6565b61057d565b6040516101f09190611a58565b60405180910390f35b610213600480360381019061020e9190611aab565b610623565b6040516102209190611b15565b60405180910390f35b610243600480360381019061023e9190611be6565b610634565b6040516102509190611c20565b60405180910390f35b6102616106ea565b60405161026e9190611a58565b60405180910390f35b610291600480360381019061028c9190611c63565b61077a565b005b6102ad60048036038101906102a89190611dcd565b610790565b005b6102c960048036038101906102c49190611aab565b6107b5565b6040516102d69190611a58565b60405180910390f35b6102f960048036038101906102f49190611e4d565b6108c0565b60405161030691906119cf565b60405180910390f35b61032960048036038101906103249190611f29565b61094e565b6040516103369190611c20565b60405180910390f35b5f634906490660e01b7bffffffffffffffffffffffffffffffffffffffffffffffffffffffff1916827bffffffffffffffffffffffffffffffffffffffffffffffffffffffff19161480610398575061039782610a43565b5b9050919050565b60605f80546103ad90611fb0565b80601f01602080910402602001604051908101604052809291908181526020018280546103d990611fb0565b80156104245780601f106103fb57610100808354040283529160200191610424565b820191905f5260205f20905b81548152906001019060200180831161040757829003601f168201915b5050505050905090565b5f61043882610b24565b5061044282610baa565b9050919050565b61045b8282610456610be3565b610bea565b5050565b5f73ffffffffffffffffffffffffffffffffffffffff168273ffffffffffffffffffffffffffffffffffffffff16036104cf575f6040517f64a0ae920000000000000000000000000000000000000000000000000000000081526004016104c69190611b15565b60405180910390fd5b5f6104e283836104dd610be3565b610bfc565b90508373ffffffffffffffffffffffffffffffffffffffff168173ffffffffffffffffffffffffffffffffffffffff1614610558578382826040517f64283d7b00000000000000000000000000000000000000000000000000000000815260040161054f93929190611fe0565b60405180910390fd5b50505050565b61057883838360405180602001604052805f815250610790565b505050565b60605f60085f8473ffffffffffffffffffffffffffffffffffffffff1673ffffffffffffffffffffffffffffffffffffffff1681526020019081526020015f209050805f015f9054906101000a900460ff1661060e576040517f08c379a00000000000000000000000000000000000000000000000000000000081526004016106059061205f565b60405180910390fd5b61061b81600101546107b5565b915050919050565b5f61062d82610b24565b9050919050565b5f5f73ffffffffffffffffffffffffffffffffffffffff168273ffffffffffffffffffffffffffffffffffffffff16036106a5575f6040517f89c62b6400000000000000000000000000000000000000000000000000000000815260040161069c9190611b15565b60405180910390fd5b60035f8373ffffffffffffffffffffffffffffffffffffffff1673ffffffffffffffffffffffffffffffffffffffff1681526020019081526020015f20549050919050565b6060600180546106f990611fb0565b80601f016020809104026020016040519081016040528092919081815260200182805461072590611fb0565b80156107705780601f1061074757610100808354040283529160200191610770565b820191905f5260205f20905b81548152906001019060200180831161075357829003601f168201915b5050505050905090565b61078c610785610be3565b8383610e07565b5050565b61079b84848461045f565b6107af6107a6610be3565b85858585610f70565b50505050565b60606107c082610b24565b505f60065f8481526020019081526020015f2080546107de90611fb0565b80601f016020809104026020016040519081016040528092919081815260200182805461080a90611fb0565b80156108555780601f1061082c57610100808354040283529160200191610855565b820191905f5260205f20905b81548152906001019060200180831161083857829003601f168201915b505050505090505f61086561111c565b90505f8151036108795781925050506108bb565b5f825111156108ad5780826040516020016108959291906120b7565b604051602081830303815290604052925050506108bb565b6108b684611132565b925050505b919050565b5f60055f8473ffffffffffffffffffffffffffffffffffffffff1673ffffffffffffffffffffffffffffffffffffffff1681526020019081526020015f205f8373ffffffffffffffffffffffffffffffffffffffff1673ffffffffffffffffffffffffffffffffffffffff1681526020019081526020015f205f9054906101000a900460ff16905092915050565b5f5f60085f8573ffffffffffffffffffffffffffffffffffffffff1673ffffffffffffffffffffffffffffffffffffffff1681526020019081526020015f20905060075f8154809291906109a190612107565b91905055505f6007549050815f015f9054906101000a900460ff166109e9576001825f015f6101000a81548160ff021916908315150217905550808260010181905550610a24565b6040517f08c379a0000000000000000000000000000000000000000000000000000000008152600401610a1b90612198565b60405180910390fd5b610a2e8582611198565b610a3881856111b5565b809250505092915050565b5f7f80ac58cd000000000000000000000000000000000000000000000000000000007bffffffffffffffffffffffffffffffffffffffffffffffffffffffff1916827bffffffffffffffffffffffffffffffffffffffffffffffffffffffff19161480610b0d57507f5b5e139f000000000000000000000000000000000000000000000000000000007bffffffffffffffffffffffffffffffffffffffffffffffffffffffff1916827bffffffffffffffffffffffffffffffffffffffffffffffffffffffff1916145b80610b1d5750610b1c8261120f565b5b9050919050565b5f5f610b2f83611278565b90505f73ffffffffffffffffffffffffffffffffffffffff168173ffffffffffffffffffffffffffffffffffffffff1603610ba157826040517f7e273289000000000000000000000000000000000000000000000000000000008152600401610b989190611c20565b60405180910390fd5b80915050919050565b5f60045f8381526020019081526020015f205f9054906101000a900473ffffffffffffffffffffffffffffffffffffffff169050919050565b5f33905090565b610bf783838360016112b1565b505050565b5f5f610c0784611278565b90505f73ffffffffffffffffffffffffffffffffffffffff168373ffffffffffffffffffffffffffffffffffffffff1614610c4857610c47818486611470565b5b5f73ffffffffffffffffffffffffffffffffffffffff168173ffffffffffffffffffffffffffffffffffffffff1614610cd357610c875f855f5f6112b1565b600160035f8373ffffffffffffffffffffffffffffffffffffffff1673ffffffffffffffffffffffffffffffffffffffff1681526020019081526020015f205f82825403925050819055505b5f73ffffffffffffffffffffffffffffffffffffffff168573ffffffffffffffffffffffffffffffffffffffff1614610d5257600160035f8773ffffffffffffffffffffffffffffffffffffffff1673ffffffffffffffffffffffffffffffffffffffff1681526020019081526020015f205f82825401925050819055505b8460025f8681526020019081526020015f205f6101000a81548173ffffffffffffffffffffffffffffffffffffffff021916908373ffffffffffffffffffffffffffffffffffffffff160217905550838573ffffffffffffffffffffffffffffffffffffffff168273ffffffffffffffffffffffffffffffffffffffff167fddf252ad1be2c89b69c2b068fc378daa952ba7f163c4a11628f55a4df523b3ef60405160405180910390a4809150509392505050565b5f73ffffffffffffffffffffffffffffffffffffffff168273ffffffffffffffffffffffffffffffffffffffff1603610e7757816040517f5b08ba18000000000000000000000000000000000000000000000000000000008152600401610e6e9190611b15565b60405180910390fd5b8060055f8573ffffffffffffffffffffffffffffffffffffffff1673ffffffffffffffffffffffffffffffffffffffff1681526020019081526020015f205f8473ffffffffffffffffffffffffffffffffffffffff1673ffffffffffffffffffffffffffffffffffffffff1681526020019081526020015f205f6101000a81548160ff0219169083151502179055508173ffffffffffffffffffffffffffffffffffffffff168373ffffffffffffffffffffffffffffffffffffffff167f17307eab39ab6107e8899845ad3d59bd9653f200f220920489ca2b5937696c3183604051610f6391906119cf565b60405180910390a3505050565b5f8373ffffffffffffffffffffffffffffffffffffffff163b1115611115578273ffffffffffffffffffffffffffffffffffffffff1663150b7a02868685856040518563ffffffff1660e01b8152600401610fce9493929190612208565b6020604051808303815f875af192505050801561100957506040513d601f19601f820116820180604052508101906110069190612266565b60015b61108a573d805f8114611037576040519150601f19603f3d011682016040523d82523d5f602084013e61103c565b606091505b505f81510361108257836040517f64a0ae920000000000000000000000000000000000000000000000000000000081526004016110799190611b15565b60405180910390fd5b805181602001fd5b63150b7a0260e01b7bffffffffffffffffffffffffffffffffffffffffffffffffffffffff1916817bffffffffffffffffffffffffffffffffffffffffffffffffffffffff19161461111357836040517f64a0ae9200000000000000000000000000000000000000000000000000000000815260040161110a9190611b15565b60405180910390fd5b505b5050505050565b606060405180602001604052805f815250905090565b606061113d82610b24565b505f61114761111c565b90505f8151116111655760405180602001604052805f815250611190565b8061116f84611533565b6040516020016111809291906120b7565b6040516020818303038152906040525b915050919050565b6111b1828260405180602001604052805f8152506115fd565b5050565b8060065f8481526020019081526020015f2090816111d39190612431565b507ff8e1a15aba9398e019f0b49df1a4fde98ee17ae345cb5f6b5e2c27f5033e8ce7826040516112039190611c20565b60405180910390a15050565b5f7f01ffc9a7000000000000000000000000000000000000000000000000000000007bffffffffffffffffffffffffffffffffffffffffffffffffffffffff1916827bffffffffffffffffffffffffffffffffffffffffffffffffffffffff1916149050919050565b5f60025f8381526020019081526020015f205f9054906101000a900473ffffffffffffffffffffffffffffffffffffffff169050919050565b80806112e957505f73ffffffffffffffffffffffffffffffffffffffff168273ffffffffffffffffffffffffffffffffffffffff1614155b1561141b575f6112f884610b24565b90505f73ffffffffffffffffffffffffffffffffffffffff168373ffffffffffffffffffffffffffffffffffffffff161415801561136257508273ffffffffffffffffffffffffffffffffffffffff168173ffffffffffffffffffffffffffffffffffffffff1614155b8015611375575061137381846108c0565b155b156113b757826040517fa9fbf51f0000000000000000000000000000000000000000000000000000000081526004016113ae9190611b15565b60405180910390fd5b811561141957838573ffffffffffffffffffffffffffffffffffffffff168273ffffffffffffffffffffffffffffffffffffffff167f8c5be1e5ebec7d5bd14f71427d1e84f3dd0314c0f7b2291e5b200ac8c7c3b92560405160405180910390a45b505b8360045f8581526020019081526020015f205f6101000a81548173ffffffffffffffffffffffffffffffffffffffff021916908373ffffffffffffffffffffffffffffffffffffffff16021790555050505050565b61147b838383611620565b61152e575f73ffffffffffffffffffffffffffffffffffffffff168373ffffffffffffffffffffffffffffffffffffffff16036114ef57806040517f7e2732890000000000000000000000000000000000000000000000000000000081526004016114e69190611c20565b60405180910390fd5b81816040517f177e802f000000000000000000000000000000000000000000000000000000008152600401611525929190612500565b60405180910390fd5b505050565b60605f6001611541846116e0565b0190505f8167ffffffffffffffff81111561155f5761155e611ca9565b5b6040519080825280601f01601f1916602001820160405280156115915781602001600182028036833780820191505090505b5090505f82602001820190505b6001156115f2578080600190039150507f3031323334353637383961626364656600000000000000000000000000000000600a86061a8153600a85816115e7576115e6612527565b5b0494505f850361159e575b819350505050919050565b6116078383611831565b61161b611612610be3565b5f858585610f70565b505050565b5f5f73ffffffffffffffffffffffffffffffffffffffff168373ffffffffffffffffffffffffffffffffffffffff16141580156116d757508273ffffffffffffffffffffffffffffffffffffffff168473ffffffffffffffffffffffffffffffffffffffff161480611698575061169784846108c0565b5b806116d657508273ffffffffffffffffffffffffffffffffffffffff166116be83610baa565b73ffffffffffffffffffffffffffffffffffffffff16145b5b90509392505050565b5f5f5f90507a184f03e93ff9f4daa797ed6e38ed64bf6a1f010000000000000000831061173c577a184f03e93ff9f4daa797ed6e38ed64bf6a1f010000000000000000838161173257611731612527565b5b0492506040810190505b6d04ee2d6d415b85acef81000000008310611779576d04ee2d6d415b85acef8100000000838161176f5761176e612527565b5b0492506020810190505b662386f26fc1000083106117a857662386f26fc10000838161179e5761179d612527565b5b0492506010810190505b6305f5e10083106117d1576305f5e10083816117c7576117c6612527565b5b0492506008810190505b61271083106117f65761271083816117ec576117eb612527565b5b0492506004810190505b60648310611819576064838161180f5761180e612527565b5b0492506002810190505b600a8310611828576001810190505b80915050919050565b5f73ffffffffffffffffffffffffffffffffffffffff168273ffffffffffffffffffffffffffffffffffffffff16036118a1575f6040517f64a0ae920000000000000000000000000000000000000000000000000000000081526004016118989190611b15565b60405180910390fd5b5f6118ad83835f610bfc565b90505f73ffffffffffffffffffffffffffffffffffffffff168173ffffffffffffffffffffffffffffffffffffffff161461191f575f6040517f73c6ac6e0000000000000000000000000000000000000000000000000000000081526004016119169190611b15565b60405180910390fd5b505050565b5f604051905090565b5f5ffd5b5f5ffd5b5f7fffffffff0000000000000000000000000000000000000000000000000000000082169050919050565b61196981611935565b8114611973575f5ffd5b50565b5f8135905061198481611960565b92915050565b5f6020828403121561199f5761199e61192d565b5b5f6119ac84828501611976565b91505092915050565b5f8115159050919050565b6119c9816119b5565b82525050565b5f6020820190506119e25f8301846119c0565b92915050565b5f81519050919050565b5f82825260208201905092915050565b8281835e5f83830152505050565b5f601f19601f8301169050919050565b5f611a2a826119e8565b611a3481856119f2565b9350611a44818560208601611a02565b611a4d81611a10565b840191505092915050565b5f6020820190508181035f830152611a708184611a20565b905092915050565b5f819050919050565b611a8a81611a78565b8114611a94575f5ffd5b50565b5f81359050611aa581611a81565b92915050565b5f60208284031215611ac057611abf61192d565b5b5f611acd84828501611a97565b91505092915050565b5f73ffffffffffffffffffffffffffffffffffffffff82169050919050565b5f611aff82611ad6565b9050919050565b611b0f81611af5565b82525050565b5f602082019050611b285f830184611b06565b92915050565b611b3781611af5565b8114611b41575f5ffd5b50565b5f81359050611b5281611b2e565b92915050565b5f5f60408385031215611b6e57611b6d61192d565b5b5f611b7b85828601611b44565b9250506020611b8c85828601611a97565b9150509250929050565b5f5f5f60608486031215611bad57611bac61192d565b5b5f611bba86828701611b44565b9350506020611bcb86828701611b44565b9250506040611bdc86828701611a97565b9150509250925092565b5f60208284031215611bfb57611bfa61192d565b5b5f611c0884828501611b44565b91505092915050565b611c1a81611a78565b82525050565b5f602082019050611c335f830184611c11565b92915050565b611c42816119b5565b8114611c4c575f5ffd5b50565b5f81359050611c5d81611c39565b92915050565b5f5f60408385031215611c7957611c7861192d565b5b5f611c8685828601611b44565b9250506020611c9785828601611c4f565b9150509250929050565b5f5ffd5b5f5ffd5b7f4e487b71000000000000000000000000000000000000000000000000000000005f52604160045260245ffd5b611cdf82611a10565b810181811067ffffffffffffffff82111715611cfe57611cfd611ca9565b5b80604052505050565b5f611d10611924565b9050611d1c8282611cd6565b919050565b5f67ffffffffffffffff821115611d3b57611d3a611ca9565b5b611d4482611a10565b9050602081019050919050565b828183375f83830152505050565b5f611d71611d6c84611d21565b611d07565b905082815260208101848484011115611d8d57611d8c611ca5565b5b611d98848285611d51565b509392505050565b5f82601f830112611db457611db3611ca1565b5b8135611dc4848260208601611d5f565b91505092915050565b5f5f5f5f60808587031215611de557611de461192d565b5b5f611df287828801611b44565b9450506020611e0387828801611b44565b9350506040611e1487828801611a97565b925050606085013567ffffffffffffffff811115611e3557611e34611931565b5b611e4187828801611da0565b91505092959194509250565b5f5f60408385031215611e6357611e6261192d565b5b5f611e7085828601611b44565b9250506020611e8185828601611b44565b9150509250929050565b5f67ffffffffffffffff821115611ea557611ea4611ca9565b5b611eae82611a10565b9050602081019050919050565b5f611ecd611ec884611e8b565b611d07565b905082815260208101848484011115611ee957611ee8611ca5565b5b611ef4848285611d51565b509392505050565b5f82601f830112611f1057611f0f611ca1565b5b8135611f20848260208601611ebb565b91505092915050565b5f5f60408385031215611f3f57611f3e61192d565b5b5f611f4c85828601611b44565b925050602083013567ffffffffffffffff811115611f6d57611f6c611931565b5b611f7985828601611efc565b9150509250929050565b7f4e487b71000000000000000000000000000000000000000000000000000000005f52602260045260245ffd5b5f6002820490506001821680611fc757607f821691505b602082108103611fda57611fd9611f83565b5b50919050565b5f606082019050611ff35f830186611b06565b6120006020830185611c11565b61200d6040830184611b06565b949350505050565b7f4e6f206e667420696e2070726f66696c650000000000000000000000000000005f82015250565b5f6120496011836119f2565b915061205482612015565b602082019050919050565b5f6020820190508181035f8301526120768161203d565b9050919050565b5f81905092915050565b5f612091826119e8565b61209b818561207d565b93506120ab818560208601611a02565b80840191505092915050565b5f6120c28285612087565b91506120ce8284612087565b91508190509392505050565b7f4e487b71000000000000000000000000000000000000000000000000000000005f52601160045260245ffd5b5f61211182611a78565b91507fffffffffffffffffffffffffffffffffffffffffffffffffffffffffffffffff8203612143576121426120da565b5b600182019050919050565b7f506572736f6e20616c7265616479206f776e7320616e204e46540000000000005f82015250565b5f612182601a836119f2565b915061218d8261214e565b602082019050919050565b5f6020820190508181035f8301526121af81612176565b9050919050565b5f81519050919050565b5f82825260208201905092915050565b5f6121da826121b6565b6121e481856121c0565b93506121f4818560208601611a02565b6121fd81611a10565b840191505092915050565b5f60808201905061221b5f830187611b06565b6122286020830186611b06565b6122356040830185611c11565b818103606083015261224781846121d0565b905095945050505050565b5f8151905061226081611960565b92915050565b5f6020828403121561227b5761227a61192d565b5b5f61228884828501612252565b91505092915050565b5f819050815f5260205f209050919050565b5f6020601f8301049050919050565b5f82821b905092915050565b5f600883026122ed7fffffffffffffffffffffffffffffffffffffffffffffffffffffffffffffffff826122b2565b6122f786836122b2565b95508019841693508086168417925050509392505050565b5f819050919050565b5f61233261232d61232884611a78565b61230f565b611a78565b9050919050565b5f819050919050565b61234b83612318565b61235f61235782612339565b8484546122be565b825550505050565b5f5f905090565b612376612367565b612381818484612342565b505050565b5b818110156123a4576123995f8261236e565b600181019050612387565b5050565b601f8211156123e9576123ba81612291565b6123c3846122a3565b810160208510156123d2578190505b6123e66123de856122a3565b830182612386565b50505b505050565b5f82821c905092915050565b5f6124095f19846008026123ee565b1980831691505092915050565b5f61242183836123fa565b9150826002028217905092915050565b61243a826119e8565b67ffffffffffffffff81111561245357612452611ca9565b5b61245d8254611fb0565b6124688282856123a8565b5f60209050601f831160018114612499575f8415612487578287015190505b6124918582612416565b8655506124f8565b601f1984166124a786612291565b5f5b828110156124ce578489015182556001820191506020850194506020810190506124a9565b868310156124eb57848901516124e7601f8916826123fa565b8355505b6001600288020188555050505b505050505050565b5f6040820190506125135f830185611b06565b6125206020830184611c11565b9392505050565b7f4e487b71000000000000000000000000000000000000000000000000000000005f52601260045260245ffdfea264697066735822122027c5c35c32c38ad2dbec11ff255951515690e02cd2a08bd7cd24ac3d28855ee564736f6c634300081c0033",
		"linkReferences": {}
	},
	"methodIdentifiers": {
		"approve(address,uint256)": "095ea7b3",
		"balanceOf(address)": "70a08231",
		"getApproved(uint256)": "081812fc",
		"getProfileNFT(address)": "5272aba4",
		"isApprovedForAll(address,address)": "e985e9c5",
		"mintNFT(address,string)": "eacabe14",
		"name()": "06fdde03",
		"ownerOf(uint256)": "6352211e",
		"safeTransferFrom(address,address,uint256)": "42842e0e",
		"safeTransferFrom(address,address,uint256,bytes)": "b88d4fde",
		"setApprovalForAll(address,bool)": "a22cb465",
		"supportsInterface(bytes4)": "01ffc9a7",
		"symbol()": "95d89b41",
		"tokenURI(uint256)": "c87b56dd",
		"transferFrom(address,address,uint256)": "23b872dd"
	},
	"id": 18
}