{"abi":[{"type":"constructor","inputs":[{"name":"initialOwner","type":"address","internalType":"address"}],"stateMutability":"nonpayable"},{"type":"function","name":"approve","inputs":[{"name":"to","type":"address","internalType":"address"},{"name":"tokenId","type":"uint256","internalType":"uint256"}],"outputs":[],"stateMutability":"nonpayable"},{"type":"function","name":"balanceOf","inputs":[{"name":"owner","type":"address","internalType":"address"}],"outputs":[{"name":"","type":"uint256","internalType":"uint256"}],"stateMutability":"view"},{"type":"function","name":"deleteOwnNFT","inputs":[],"outputs":[],"stateMutability":"nonpayable"},{"type":"function","name":"getApproved","inputs":[{"name":"tokenId","type":"uint256","internalType":"uint256"}],"outputs":[{"name":"","type":"address","internalType":"address"}],"stateMutability":"view"},{"type":"function","name":"getNFT","inputs":[{"name":"user","type":"address","internalType":"address"}],"outputs":[{"name":"","type":"string","internalType":"string"}],"stateMutability":"view"},{"type":"function","name":"isApprovedForAll","inputs":[{"name":"owner","type":"address","internalType":"address"},{"name":"operator","type":"address","internalType":"address"}],"outputs":[{"name":"","type":"bool","internalType":"bool"}],"stateMutability":"view"},{"type":"function","name":"mintNFT","inputs":[{"name":"tokenURI","type":"string","internalType":"string"}],"outputs":[{"name":"","type":"uint256","internalType":"uint256"}],"stateMutability":"nonpayable"},{"type":"function","name":"name","inputs":[],"outputs":[{"name":"","type":"string","internalType":"string"}],"stateMutability":"view"},{"type":"function","name":"ownerDeleteNFT","inputs":[{"name":"recipient","type":"address","internalType":"address"}],"outputs":[],"stateMutability":"nonpayable"},{"type":"function","name":"ownerOf","inputs":[{"name":"tokenId","type":"uint256","internalType":"uint256"}],"outputs":[{"name":"","type":"address","internalType":"address"}],"stateMutability":"view"},{"type":"function","name":"safeTransferFrom","inputs":[{"name":"from","type":"address","internalType":"address"},{"name":"to","type":"address","internalType":"address"},{"name":"tokenId","type":"uint256","internalType":"uint256"}],"outputs":[],"stateMutability":"nonpayable"},{"type":"function","name":"safeTransferFrom","inputs":[{"name":"from","type":"address","internalType":"address"},{"name":"to","type":"address","internalType":"address"},{"name":"tokenId","type":"uint256","internalType":"uint256"},{"name":"data","type":"bytes","internalType":"bytes"}],"outputs":[],"stateMutability":"nonpayable"},{"type":"function","name":"setApprovalForAll","inputs":[{"name":"operator","type":"address","internalType":"address"},{"name":"approved","type":"bool","internalType":"bool"}],"outputs":[],"stateMutability":"nonpayable"},{"type":"function","name":"supportsInterface","inputs":[{"name":"interfaceId","type":"bytes4","internalType":"bytes4"}],"outputs":[{"name":"","type":"bool","internalType":"bool"}],"stateMutability":"view"},{"type":"function","name":"symbol","inputs":[],"outputs":[{"name":"","type":"string","internalType":"string"}],"stateMutability":"view"},{"type":"function","name":"tokenURI","inputs":[{"name":"tokenId","type":"uint256","internalType":"uint256"}],"outputs":[{"name":"","type":"string","internalType":"string"}],"stateMutability":"view"},{"type":"function","name":"transferFrom","inputs":[{"name":"from","type":"address","internalType":"address"},{"name":"to","type":"address","internalType":"address"},{"name":"tokenId","type":"uint256","internalType":"uint256"}],"outputs":[],"stateMutability":"nonpayable"},{"type":"event","name":"Approval","inputs":[{"name":"owner","type":"address","indexed":true,"internalType":"address"},{"name":"approved","type":"address","indexed":true,"internalType":"address"},{"name":"tokenId","type":"uint256","indexed":true,"internalType":"uint256"}],"anonymous":false},{"type":"event","name":"ApprovalForAll","inputs":[{"name":"owner","type":"address","indexed":true,"internalType":"address"},{"name":"operator","type":"address","indexed":true,"internalType":"address"},{"name":"approved","type":"bool","indexed":false,"internalType":"bool"}],"anonymous":false},{"type":"event","name":"BatchMetadataUpdate","inputs":[{"name":"_fromTokenId","type":"uint256","indexed":false,"internalType":"uint256"},{"name":"_toTokenId","type":"uint256","indexed":false,"internalType":"uint256"}],"anonymous":false},{"type":"event","name":"MetadataUpdate","inputs":[{"name":"_tokenId","type":"uint256","indexed":false,"internalType":"uint256"}],"anonymous":false},{"type":"event","name":"ProfileClaimed","inputs":[{"name":"user","type":"address","indexed":true,"internalType":"address"},{"name":"tokenId","type":"uint256","indexed":false,"internalType":"uint256"}],"anonymous":false},{"type":"event","name":"ProfileUpdated","inputs":[{"name":"user","type":"address","indexed":true,"internalType":"address"},{"name":"claimed","type":"bool","indexed":false,"internalType":"bool"},{"name":"tokenId","type":"uint256","indexed":false,"internalType":"uint256"}],"anonymous":false},{"type":"event","name":"Transfer","inputs":[{"name":"from","type":"address","indexed":true,"internalType":"address"},{"name":"to","type":"address","indexed":true,"internalType":"address"},{"name":"tokenId","type":"uint256","indexed":true,"internalType":"uint256"}],"anonymous":false},{"type":"error","name":"ERC721IncorrectOwner","inputs":[{"name":"sender","type":"address","internalType":"address"},{"name":"tokenId","type":"uint256","internalType":"uint256"},{"name":"owner","type":"address","internalType":"address"}]},{"type":"error","name":"ERC721InsufficientApproval","inputs":[{"name":"operator","type":"address","internalType":"address"},{"name":"tokenId","type":"uint256","internalType":"uint256"}]},{"type":"error","name":"ERC721InvalidApprover","inputs":[{"name":"approver","type":"address","internalType":"address"}]},{"type":"error","name":"ERC721InvalidOperator","inputs":[{"name":"operator","type":"address","internalType":"address"}]},{"type":"error","name":"ERC721InvalidOwner","inputs":[{"name":"owner","type":"address","internalType":"address"}]},{"type":"error","name":"ERC721InvalidReceiver","inputs":[{"name":"receiver","type":"address","internalType":"address"}]},{"type":"error","name":"ERC721InvalidSender","inputs":[{"name":"sender","type":"address","internalType":"address"}]},{"type":"error","name":"ERC721NonexistentToken","inputs":[{"name":"tokenId","type":"uint256","internalType":"uint256"}]}],"bytecode":{"object":"0x608060405234801561000f575f5ffd5b5060405161324d38038061324d83398181016040528101906100319190610162565b6040518060400160405280600581526020017f4d794e46540000000000000000000000000000000000000000000000000000008152506040518060400160405280600381526020017f4e46540000000000000000000000000000000000000000000000000000000000815250815f90816100ab91906103ca565b5080600190816100bb91906103ca565b5050508060085f6101000a81548173ffffffffffffffffffffffffffffffffffffffff021916908373ffffffffffffffffffffffffffffffffffffffff16021790555050610499565b5f5ffd5b5f73ffffffffffffffffffffffffffffffffffffffff82169050919050565b5f61013182610108565b9050919050565b61014181610127565b811461014b575f5ffd5b50565b5f8151905061015c81610138565b92915050565b5f6020828403121561017757610176610104565b5b5f6101848482850161014e565b91505092915050565b5f81519050919050565b7f4e487b71000000000000000000000000000000000000000000000000000000005f52604160045260245ffd5b7f4e487b71000000000000000000000000000000000000000000000000000000005f52602260045260245ffd5b5f600282049050600182168061020857607f821691505b60208210810361021b5761021a6101c4565b5b50919050565b5f819050815f5260205f209050919050565b5f6020601f8301049050919050565b5f82821b905092915050565b5f6008830261027d7fffffffffffffffffffffffffffffffffffffffffffffffffffffffffffffffff82610242565b6102878683610242565b95508019841693508086168417925050509392505050565b5f819050919050565b5f819050919050565b5f6102cb6102c66102c18461029f565b6102a8565b61029f565b9050919050565b5f819050919050565b6102e4836102b1565b6102f86102f0826102d2565b84845461024e565b825550505050565b5f5f905090565b61030f610300565b61031a8184846102db565b505050565b5b8181101561033d576103325f82610307565b600181019050610320565b5050565b601f8211156103825761035381610221565b61035c84610233565b8101602085101561036b578190505b61037f61037785610233565b83018261031f565b50505b505050565b5f82821c905092915050565b5f6103a25f1984600802610387565b1980831691505092915050565b5f6103ba8383610393565b9150826002028217905092915050565b6103d38261018d565b67ffffffffffffffff8111156103ec576103eb610197565b5b6103f682546101f1565b610401828285610341565b5f60209050601f831160018114610432575f8415610420578287015190505b61042a85826103af565b865550610491565b601f19841661044086610221565b5f5b8281101561046757848901518255600182019150602085019450602081019050610442565b868310156104845784890151610480601f891682610393565b8355505b6001600288020188555050505b505050505050565b612da7806104a65f395ff3fe608060405234801561000f575f5ffd5b5060043610610109575f3560e01c806370a08231116100a0578063b88d4fde1161006f578063b88d4fde146102c5578063c87b56dd146102e1578063ddba897d14610311578063e985e9c51461031b578063fb37e8831461034b57610109565b806370a082311461023f57806378be1d1f1461026f57806395d89b411461028b578063a22cb465146102a957610109565b8063161a6c1e116100dc578063161a6c1e146101a757806323b872dd146101d757806342842e0e146101f35780636352211e1461020f57610109565b806301ffc9a71461010d57806306fdde031461013d578063081812fc1461015b578063095ea7b31461018b575b5f5ffd5b61012760048036038101906101229190611fd5565b61037b565b604051610134919061201a565b60405180910390f35b6101456103db565b60405161015291906120a3565b60405180910390f35b610175600480360381019061017091906120f6565b61046a565b6040516101829190612160565b60405180910390f35b6101a560048036038101906101a091906121a3565b610485565b005b6101c160048036038101906101bc91906121e1565b61049b565b6040516101ce91906120a3565b60405180910390f35b6101f160048036038101906101ec919061220c565b61057d565b005b61020d6004803603810190610208919061220c565b610631565b005b610229600480360381019061022491906120f6565b610650565b6040516102369190612160565b60405180910390f35b610259600480360381019061025491906121e1565b610661565b604051610266919061226b565b60405180910390f35b610289600480360381019061028491906121e1565b610717565b005b6102936107b2565b6040516102a091906120a3565b60405180910390f35b6102c360048036038101906102be91906122ae565b610842565b005b6102df60048036038101906102da9190612418565b610858565b005b6102fb60048036038101906102f691906120f6565b61090e565b60405161030891906120a3565b60405180910390f35b610319610a19565b005b61033560048036038101906103309190612498565b610a24565b604051610342919061201a565b60405180910390f35b61036560048036038101906103609190612574565b610ab2565b604051610372919061226b565b60405180910390f35b5f634906490660e01b7bffffffffffffffffffffffffffffffffffffffffffffffffffffffff1916827bffffffffffffffffffffffffffffffffffffffffffffffffffffffff191614806103d457506103d382610d21565b5b9050919050565b60605f80546103e9906125e8565b80601f0160208091040260200160405190810160405280929190818152602001828054610415906125e8565b80156104605780601f1061043757610100808354040283529160200191610460565b820191905f5260205f20905b81548152906001019060200180831161044357829003601f168201915b5050505050905090565b5f61047482610e02565b5061047e82610e88565b9050919050565b6104978282610492610ec1565b610ec8565b5050565b606060095f8373ffffffffffffffffffffffffffffffffffffffff1673ffffffffffffffffffffffffffffffffffffffff1681526020019081526020015f205f015f9054906101000a900460ff16610528576040517f08c379a000000000000000000000000000000000000000000000000000000000815260040161051f90612662565b60405180910390fd5b5f60095f8473ffffffffffffffffffffffffffffffffffffffff1673ffffffffffffffffffffffffffffffffffffffff1681526020019081526020015f206001015490506105758161090e565b915050919050565b5f73ffffffffffffffffffffffffffffffffffffffff168373ffffffffffffffffffffffffffffffffffffffff1614806105e257505f73ffffffffffffffffffffffffffffffffffffffff168273ffffffffffffffffffffffffffffffffffffffff16145b610621576040517f08c379a0000000000000000000000000000000000000000000000000000000008152600401610618906126f0565b60405180910390fd5b61062c838383610eda565b505050565b61064b83838360405180602001604052805f815250610858565b505050565b5f61065a82610e02565b9050919050565b5f5f73ffffffffffffffffffffffffffffffffffffffff168273ffffffffffffffffffffffffffffffffffffffff16036106d2575f6040517f89c62b640000000000000000000000000000000000000000000000000000000081526004016106c99190612160565b60405180910390fd5b60035f8373ffffffffffffffffffffffffffffffffffffffff1673ffffffffffffffffffffffffffffffffffffffff1681526020019081526020015f20549050919050565b60085f9054906101000a900473ffffffffffffffffffffffffffffffffffffffff1673ffffffffffffffffffffffffffffffffffffffff163373ffffffffffffffffffffffffffffffffffffffff16146107a6576040517f08c379a000000000000000000000000000000000000000000000000000000000815260040161079d90612758565b60405180910390fd5b6107af81610fd9565b50565b6060600180546107c1906125e8565b80601f01602080910402602001604051908101604052809291908181526020018280546107ed906125e8565b80156108385780601f1061080f57610100808354040283529160200191610838565b820191905f5260205f20905b81548152906001019060200180831161081b57829003601f168201915b5050505050905090565b61085461084d610ec1565b83836111a0565b5050565b5f73ffffffffffffffffffffffffffffffffffffffff168473ffffffffffffffffffffffffffffffffffffffff1614806108bd57505f73ffffffffffffffffffffffffffffffffffffffff168373ffffffffffffffffffffffffffffffffffffffff16145b6108fc576040517f08c379a00000000000000000000000000000000000000000000000000000000081526004016108f3906126f0565b60405180910390fd5b61090884848484611309565b50505050565b606061091982610e02565b505f60065f8481526020019081526020015f208054610937906125e8565b80601f0160208091040260200160405190810160405280929190818152602001828054610963906125e8565b80156109ae5780601f10610985576101008083540402835291602001916109ae565b820191905f5260205f20905b81548152906001019060200180831161099157829003601f168201915b505050505090505f6109be61132e565b90505f8151036109d2578192505050610a14565b5f82511115610a065780826040516020016109ee9291906127b0565b60405160208183030381529060405292505050610a14565b610a0f84611344565b925050505b919050565b610a2233610fd9565b565b5f60055f8473ffffffffffffffffffffffffffffffffffffffff1673ffffffffffffffffffffffffffffffffffffffff1681526020019081526020015f205f8373ffffffffffffffffffffffffffffffffffffffff1673ffffffffffffffffffffffffffffffffffffffff1681526020019081526020015f205f9054906101000a900460ff16905092915050565b5f60095f3373ffffffffffffffffffffffffffffffffffffffff1673ffffffffffffffffffffffffffffffffffffffff1681526020019081526020015f205f015f9054906101000a900460ff1615610b3f576040517f08c379a0000000000000000000000000000000000000000000000000000000008152600401610b369061281d565b60405180910390fd5b60075f815480929190610b5190612868565b91905055505f6007549050610b6633826113aa565b610b7081846113c7565b60405180604001604052806001151581526020018281525060095f3373ffffffffffffffffffffffffffffffffffffffff1673ffffffffffffffffffffffffffffffffffffffff1681526020019081526020015f205f820151815f015f6101000a81548160ff021916908315150217905550602082015181600101559050503373ffffffffffffffffffffffffffffffffffffffff167f967ebf5b4f9dd0b13a2fbcb71153e3d64c7c10ddaccca5f0d9d3f82ee9fe44b782604051610c35919061226b565b60405180910390a23373ffffffffffffffffffffffffffffffffffffffff167f21a68903e7e857011cc0dbd9614add4ecef5cae25577924769c4d2191f9feae760095f3373ffffffffffffffffffffffffffffffffffffffff1673ffffffffffffffffffffffffffffffffffffffff1681526020019081526020015f205f015f9054906101000a900460ff1660095f3373ffffffffffffffffffffffffffffffffffffffff1673ffffffffffffffffffffffffffffffffffffffff1681526020019081526020015f2060010154604051610d109291906128af565b60405180910390a280915050919050565b5f7f80ac58cd000000000000000000000000000000000000000000000000000000007bffffffffffffffffffffffffffffffffffffffffffffffffffffffff1916827bffffffffffffffffffffffffffffffffffffffffffffffffffffffff19161480610deb57507f5b5e139f000000000000000000000000000000000000000000000000000000007bffffffffffffffffffffffffffffffffffffffffffffffffffffffff1916827bffffffffffffffffffffffffffffffffffffffffffffffffffffffff1916145b80610dfb5750610dfa82611421565b5b9050919050565b5f5f610e0d8361148a565b90505f73ffffffffffffffffffffffffffffffffffffffff168173ffffffffffffffffffffffffffffffffffffffff1603610e7f57826040517f7e273289000000000000000000000000000000000000000000000000000000008152600401610e76919061226b565b60405180910390fd5b80915050919050565b5f60045f8381526020019081526020015f205f9054906101000a900473ffffffffffffffffffffffffffffffffffffffff169050919050565b5f33905090565b610ed583838360016114c3565b505050565b5f73ffffffffffffffffffffffffffffffffffffffff168273ffffffffffffffffffffffffffffffffffffffff1603610f4a575f6040517f64a0ae92000000000000000000000000000000000000000000000000000000008152600401610f419190612160565b60405180910390fd5b5f610f5d8383610f58610ec1565b611682565b90508373ffffffffffffffffffffffffffffffffffffffff168173ffffffffffffffffffffffffffffffffffffffff1614610fd3578382826040517f64283d7b000000000000000000000000000000000000000000000000000000008152600401610fca939291906128d6565b60405180910390fd5b50505050565b60095f8273ffffffffffffffffffffffffffffffffffffffff1673ffffffffffffffffffffffffffffffffffffffff1681526020019081526020015f205f015f9054906101000a900460ff16611064576040517f08c379a000000000000000000000000000000000000000000000000000000000815260040161105b90612955565b60405180910390fd5b5f60095f8373ffffffffffffffffffffffffffffffffffffffff1673ffffffffffffffffffffffffffffffffffffffff1681526020019081526020015f206001015490505f60095f8473ffffffffffffffffffffffffffffffffffffffff1673ffffffffffffffffffffffffffffffffffffffff1681526020019081526020015f205f015f6101000a81548160ff0219169083151502179055505f60095f8473ffffffffffffffffffffffffffffffffffffffff1673ffffffffffffffffffffffffffffffffffffffff1681526020019081526020015f206001018190555061114c8161188d565b8173ffffffffffffffffffffffffffffffffffffffff167f21a68903e7e857011cc0dbd9614add4ecef5cae25577924769c4d2191f9feae75f5f6040516111949291906129b5565b60405180910390a25050565b5f73ffffffffffffffffffffffffffffffffffffffff168273ffffffffffffffffffffffffffffffffffffffff160361121057816040517f5b08ba180000000000000000000000000000000000000000000000000000000081526004016112079190612160565b60405180910390fd5b8060055f8573ffffffffffffffffffffffffffffffffffffffff1673ffffffffffffffffffffffffffffffffffffffff1681526020019081526020015f205f8473ffffffffffffffffffffffffffffffffffffffff1673ffffffffffffffffffffffffffffffffffffffff1681526020019081526020015f205f6101000a81548160ff0219169083151502179055508173ffffffffffffffffffffffffffffffffffffffff168373ffffffffffffffffffffffffffffffffffffffff167f17307eab39ab6107e8899845ad3d59bd9653f200f220920489ca2b5937696c31836040516112fc919061201a565b60405180910390a3505050565b61131484848461057d565b61132861131f610ec1565b8585858561190f565b50505050565b606060405180602001604052805f815250905090565b606061134f82610e02565b505f61135961132e565b90505f8151116113775760405180602001604052805f8152506113a2565b8061138184611abb565b6040516020016113929291906127b0565b6040516020818303038152906040525b915050919050565b6113c3828260405180602001604052805f815250611b85565b5050565b8060065f8481526020019081526020015f2090816113e59190612b73565b507ff8e1a15aba9398e019f0b49df1a4fde98ee17ae345cb5f6b5e2c27f5033e8ce782604051611415919061226b565b60405180910390a15050565b5f7f01ffc9a7000000000000000000000000000000000000000000000000000000007bffffffffffffffffffffffffffffffffffffffffffffffffffffffff1916827bffffffffffffffffffffffffffffffffffffffffffffffffffffffff1916149050919050565b5f60025f8381526020019081526020015f205f9054906101000a900473ffffffffffffffffffffffffffffffffffffffff169050919050565b80806114fb57505f73ffffffffffffffffffffffffffffffffffffffff168273ffffffffffffffffffffffffffffffffffffffff1614155b1561162d575f61150a84610e02565b90505f73ffffffffffffffffffffffffffffffffffffffff168373ffffffffffffffffffffffffffffffffffffffff161415801561157457508273ffffffffffffffffffffffffffffffffffffffff168173ffffffffffffffffffffffffffffffffffffffff1614155b801561158757506115858184610a24565b155b156115c957826040517fa9fbf51f0000000000000000000000000000000000000000000000000000000081526004016115c09190612160565b60405180910390fd5b811561162b57838573ffffffffffffffffffffffffffffffffffffffff168273ffffffffffffffffffffffffffffffffffffffff167f8c5be1e5ebec7d5bd14f71427d1e84f3dd0314c0f7b2291e5b200ac8c7c3b92560405160405180910390a45b505b8360045f8581526020019081526020015f205f6101000a81548173ffffffffffffffffffffffffffffffffffffffff021916908373ffffffffffffffffffffffffffffffffffffffff16021790555050505050565b5f5f61168d8461148a565b90505f73ffffffffffffffffffffffffffffffffffffffff168373ffffffffffffffffffffffffffffffffffffffff16146116ce576116cd818486611ba8565b5b5f73ffffffffffffffffffffffffffffffffffffffff168173ffffffffffffffffffffffffffffffffffffffff16146117595761170d5f855f5f6114c3565b600160035f8373ffffffffffffffffffffffffffffffffffffffff1673ffffffffffffffffffffffffffffffffffffffff1681526020019081526020015f205f82825403925050819055505b5f73ffffffffffffffffffffffffffffffffffffffff168573ffffffffffffffffffffffffffffffffffffffff16146117d857600160035f8773ffffffffffffffffffffffffffffffffffffffff1673ffffffffffffffffffffffffffffffffffffffff1681526020019081526020015f205f82825401925050819055505b8460025f8681526020019081526020015f205f6101000a81548173ffffffffffffffffffffffffffffffffffffffff021916908373ffffffffffffffffffffffffffffffffffffffff160217905550838573ffffffffffffffffffffffffffffffffffffffff168273ffffffffffffffffffffffffffffffffffffffff167fddf252ad1be2c89b69c2b068fc378daa952ba7f163c4a11628f55a4df523b3ef60405160405180910390a4809150509392505050565b5f6118995f835f611682565b90505f73ffffffffffffffffffffffffffffffffffffffff168173ffffffffffffffffffffffffffffffffffffffff160361190b57816040517f7e273289000000000000000000000000000000000000000000000000000000008152600401611902919061226b565b60405180910390fd5b5050565b5f8373ffffffffffffffffffffffffffffffffffffffff163b1115611ab4578273ffffffffffffffffffffffffffffffffffffffff1663150b7a02868685856040518563ffffffff1660e01b815260040161196d9493929190612c94565b6020604051808303815f875af19250505080156119a857506040513d601f19601f820116820180604052508101906119a59190612cf2565b60015b611a29573d805f81146119d6576040519150601f19603f3d011682016040523d82523d5f602084013e6119db565b606091505b505f815103611a2157836040517f64a0ae92000000000000000000000000000000000000000000000000000000008152600401611a189190612160565b60405180910390fd5b805181602001fd5b63150b7a0260e01b7bffffffffffffffffffffffffffffffffffffffffffffffffffffffff1916817bffffffffffffffffffffffffffffffffffffffffffffffffffffffff191614611ab257836040517f64a0ae92000000000000000000000000000000000000000000000000000000008152600401611aa99190612160565b60405180910390fd5b505b5050505050565b60605f6001611ac984611c6b565b0190505f8167ffffffffffffffff811115611ae757611ae66122f4565b5b6040519080825280601f01601f191660200182016040528015611b195781602001600182028036833780820191505090505b5090505f82602001820190505b600115611b7a578080600190039150507f3031323334353637383961626364656600000000000000000000000000000000600a86061a8153600a8581611b6f57611b6e612d1d565b5b0494505f8503611b26575b819350505050919050565b611b8f8383611dbc565b611ba3611b9a610ec1565b5f85858561190f565b505050565b611bb3838383611eaf565b611c66575f73ffffffffffffffffffffffffffffffffffffffff168373ffffffffffffffffffffffffffffffffffffffff1603611c2757806040517f7e273289000000000000000000000000000000000000000000000000000000008152600401611c1e919061226b565b60405180910390fd5b81816040517f177e802f000000000000000000000000000000000000000000000000000000008152600401611c5d929190612d4a565b60405180910390fd5b505050565b5f5f5f90507a184f03e93ff9f4daa797ed6e38ed64bf6a1f0100000000000000008310611cc7577a184f03e93ff9f4daa797ed6e38ed64bf6a1f0100000000000000008381611cbd57611cbc612d1d565b5b0492506040810190505b6d04ee2d6d415b85acef81000000008310611d04576d04ee2d6d415b85acef81000000008381611cfa57611cf9612d1d565b5b0492506020810190505b662386f26fc100008310611d3357662386f26fc100008381611d2957611d28612d1d565b5b0492506010810190505b6305f5e1008310611d5c576305f5e1008381611d5257611d51612d1d565b5b0492506008810190505b6127108310611d81576127108381611d7757611d76612d1d565b5b0492506004810190505b60648310611da45760648381611d9a57611d99612d1d565b5b0492506002810190505b600a8310611db3576001810190505b80915050919050565b5f73ffffffffffffffffffffffffffffffffffffffff168273ffffffffffffffffffffffffffffffffffffffff1603611e2c575f6040517f64a0ae92000000000000000000000000000000000000000000000000000000008152600401611e239190612160565b60405180910390fd5b5f611e3883835f611682565b90505f73ffffffffffffffffffffffffffffffffffffffff168173ffffffffffffffffffffffffffffffffffffffff1614611eaa575f6040517f73c6ac6e000000000000000000000000000000000000000000000000000000008152600401611ea19190612160565b60405180910390fd5b505050565b5f5f73ffffffffffffffffffffffffffffffffffffffff168373ffffffffffffffffffffffffffffffffffffffff1614158015611f6657508273ffffffffffffffffffffffffffffffffffffffff168473ffffffffffffffffffffffffffffffffffffffff161480611f275750611f268484610a24565b5b80611f6557508273ffffffffffffffffffffffffffffffffffffffff16611f4d83610e88565b73ffffffffffffffffffffffffffffffffffffffff16145b5b90509392505050565b5f604051905090565b5f5ffd5b5f5ffd5b5f7fffffffff0000000000000000000000000000000000000000000000000000000082169050919050565b611fb481611f80565b8114611fbe575f5ffd5b50565b5f81359050611fcf81611fab565b92915050565b5f60208284031215611fea57611fe9611f78565b5b5f611ff784828501611fc1565b91505092915050565b5f8115159050919050565b61201481612000565b82525050565b5f60208201905061202d5f83018461200b565b92915050565b5f81519050919050565b5f82825260208201905092915050565b8281835e5f83830152505050565b5f601f19601f8301169050919050565b5f61207582612033565b61207f818561203d565b935061208f81856020860161204d565b6120988161205b565b840191505092915050565b5f6020820190508181035f8301526120bb818461206b565b905092915050565b5f819050919050565b6120d5816120c3565b81146120df575f5ffd5b50565b5f813590506120f0816120cc565b92915050565b5f6020828403121561210b5761210a611f78565b5b5f612118848285016120e2565b91505092915050565b5f73ffffffffffffffffffffffffffffffffffffffff82169050919050565b5f61214a82612121565b9050919050565b61215a81612140565b82525050565b5f6020820190506121735f830184612151565b92915050565b61218281612140565b811461218c575f5ffd5b50565b5f8135905061219d81612179565b92915050565b5f5f604083850312156121b9576121b8611f78565b5b5f6121c68582860161218f565b92505060206121d7858286016120e2565b9150509250929050565b5f602082840312156121f6576121f5611f78565b5b5f6122038482850161218f565b91505092915050565b5f5f5f6060848603121561222357612222611f78565b5b5f6122308682870161218f565b93505060206122418682870161218f565b9250506040612252868287016120e2565b9150509250925092565b612265816120c3565b82525050565b5f60208201905061227e5f83018461225c565b92915050565b61228d81612000565b8114612297575f5ffd5b50565b5f813590506122a881612284565b92915050565b5f5f604083850312156122c4576122c3611f78565b5b5f6122d18582860161218f565b92505060206122e28582860161229a565b9150509250929050565b5f5ffd5b5f5ffd5b7f4e487b71000000000000000000000000000000000000000000000000000000005f52604160045260245ffd5b61232a8261205b565b810181811067ffffffffffffffff82111715612349576123486122f4565b5b80604052505050565b5f61235b611f6f565b90506123678282612321565b919050565b5f67ffffffffffffffff821115612386576123856122f4565b5b61238f8261205b565b9050602081019050919050565b828183375f83830152505050565b5f6123bc6123b78461236c565b612352565b9050828152602081018484840111156123d8576123d76122f0565b5b6123e384828561239c565b509392505050565b5f82601f8301126123ff576123fe6122ec565b5b813561240f8482602086016123aa565b91505092915050565b5f5f5f5f608085870312156124305761242f611f78565b5b5f61243d8782880161218f565b945050602061244e8782880161218f565b935050604061245f878288016120e2565b925050606085013567ffffffffffffffff8111156124805761247f611f7c565b5b61248c878288016123eb565b91505092959194509250565b5f5f604083850312156124ae576124ad611f78565b5b5f6124bb8582860161218f565b92505060206124cc8582860161218f565b9150509250929050565b5f67ffffffffffffffff8211156124f0576124ef6122f4565b5b6124f98261205b565b9050602081019050919050565b5f612518612513846124d6565b612352565b905082815260208101848484011115612534576125336122f0565b5b61253f84828561239c565b509392505050565b5f82601f83011261255b5761255a6122ec565b5b813561256b848260208601612506565b91505092915050565b5f6020828403121561258957612588611f78565b5b5f82013567ffffffffffffffff8111156125a6576125a5611f7c565b5b6125b284828501612547565b91505092915050565b7f4e487b71000000000000000000000000000000000000000000000000000000005f52602260045260245ffd5b5f60028204905060018216806125ff57607f821691505b602082108103612612576126116125bb565b5b50919050565b7f4e6f204e465420696e2070726f66696c650000000000000000000000000000005f82015250565b5f61264c60118361203d565b915061265782612618565b602082019050919050565b5f6020820190508181035f83015261267981612640565b9050919050565b7f534f554c20424f554e443a204e46542063616e6e6f74206265207472616e73665f8201527f6572726564000000000000000000000000000000000000000000000000000000602082015250565b5f6126da60258361203d565b91506126e582612680565b604082019050919050565b5f6020820190508181035f830152612707816126ce565b9050919050565b7f4e6f742074686520636f6e7472616374206f776e6572000000000000000000005f82015250565b5f61274260168361203d565b915061274d8261270e565b602082019050919050565b5f6020820190508181035f83015261276f81612736565b9050919050565b5f81905092915050565b5f61278a82612033565b6127948185612776565b93506127a481856020860161204d565b80840191505092915050565b5f6127bb8285612780565b91506127c78284612780565b91508190509392505050565b7f506572736f6e20616c7265616479206f776e7320616e204e46540000000000005f82015250565b5f612807601a8361203d565b9150612812826127d3565b602082019050919050565b5f6020820190508181035f830152612834816127fb565b9050919050565b7f4e487b71000000000000000000000000000000000000000000000000000000005f52601160045260245ffd5b5f612872826120c3565b91507fffffffffffffffffffffffffffffffffffffffffffffffffffffffffffffffff82036128a4576128a361283b565b5b600182019050919050565b5f6040820190506128c25f83018561200b565b6128cf602083018461225c565b9392505050565b5f6060820190506128e95f830186612151565b6128f6602083018561225c565b6129036040830184612151565b949350505050565b7f4e6f204e465420746f2064656c657465000000000000000000000000000000005f82015250565b5f61293f60108361203d565b915061294a8261290b565b602082019050919050565b5f6020820190508181035f83015261296c81612933565b9050919050565b5f819050919050565b5f819050919050565b5f61299f61299a61299584612973565b61297c565b6120c3565b9050919050565b6129af81612985565b82525050565b5f6040820190506129c85f83018561200b565b6129d560208301846129a6565b9392505050565b5f819050815f5260205f209050919050565b5f6020601f8301049050919050565b5f82821b905092915050565b5f60088302612a387fffffffffffffffffffffffffffffffffffffffffffffffffffffffffffffffff826129fd565b612a4286836129fd565b95508019841693508086168417925050509392505050565b5f612a74612a6f612a6a846120c3565b61297c565b6120c3565b9050919050565b5f819050919050565b612a8d83612a5a565b612aa1612a9982612a7b565b848454612a09565b825550505050565b5f5f905090565b612ab8612aa9565b612ac3818484612a84565b505050565b5b81811015612ae657612adb5f82612ab0565b600181019050612ac9565b5050565b601f821115612b2b57612afc816129dc565b612b05846129ee565b81016020851015612b14578190505b612b28612b20856129ee565b830182612ac8565b50505b505050565b5f82821c905092915050565b5f612b4b5f1984600802612b30565b1980831691505092915050565b5f612b638383612b3c565b9150826002028217905092915050565b612b7c82612033565b67ffffffffffffffff811115612b9557612b946122f4565b5b612b9f82546125e8565b612baa828285612aea565b5f60209050601f831160018114612bdb575f8415612bc9578287015190505b612bd38582612b58565b865550612c3a565b601f198416612be9866129dc565b5f5b82811015612c1057848901518255600182019150602085019450602081019050612beb565b86831015612c2d5784890151612c29601f891682612b3c565b8355505b6001600288020188555050505b505050505050565b5f81519050919050565b5f82825260208201905092915050565b5f612c6682612c42565b612c708185612c4c565b9350612c8081856020860161204d565b612c898161205b565b840191505092915050565b5f608082019050612ca75f830187612151565b612cb46020830186612151565b612cc1604083018561225c565b8181036060830152612cd38184612c5c565b905095945050505050565b5f81519050612cec81611fab565b92915050565b5f60208284031215612d0757612d06611f78565b5b5f612d1484828501612cde565b91505092915050565b7f4e487b71000000000000000000000000000000000000000000000000000000005f52601260045260245ffd5b5f604082019050612d5d5f830185612151565b612d6a602083018461225c565b939250505056fea264697066735822122093ddfd488b7855bf0428d6b12fa27fcdaa7dda304d5dbc5df98d47327bbb0a1664736f6c634300081c0033","linkReferences":{}},"methodIdentifiers":{"approve(address,uint256)":"095ea7b3","balanceOf(address)":"70a08231","deleteOwnNFT()":"ddba897d","getApproved(uint256)":"081812fc","getNFT(address)":"161a6c1e","isApprovedForAll(address,address)":"e985e9c5","mintNFT(string)":"fb37e883","name()":"06fdde03","ownerDeleteNFT(address)":"78be1d1f","ownerOf(uint256)":"6352211e","safeTransferFrom(address,address,uint256)":"42842e0e","safeTransferFrom(address,address,uint256,bytes)":"b88d4fde","setApprovalForAll(address,bool)":"a22cb465","supportsInterface(bytes4)":"01ffc9a7","symbol()":"95d89b41","tokenURI(uint256)":"c87b56dd","transferFrom(address,address,uint256)":"23b872dd"},"id":18}